:100000000C9435000C945D000C945D000C945D0024
:100010000C945D000C945D000C945D000C945D00EC
:100020000C945D000C945D000C945D000C945D00DC
:100030000C945D000C945D000C945D000C945D00CC
:100040000C94CF0C0C945D000C94AC0D0C94FA0D38
:100050000C945D000C945D000C945D000C945D00AC
:100060000C945D000C945D00680F11241FBECFEF4F
:10007000D8E0DEBFCDBF13E0A0E0B1E0E2E4F1E202
:1000800002C005900D92A83AB107D9F715E0A8EA89
:10009000B3E001C01D92A233B107E1F710E0CAE658
:1000A000D0E004C02297FE010E945910C836D10743
:1000B000C9F70E9407100C949F100C9400002F9217
:1000C0003F925F926F927F928F929F92AF92BF9278
:1000D000CF92DF92EF92FF920F931F93CF93DF9314
:1000E0008C011B01EA016115710519F0FB01918377
:1000F0008083209749F0CE010297839728F020E073
:1001000030E040E050E0F6C0F801A1908F018A2D68
:1001100090E00E945D10892BB9F7FDE2AF1631F433
:10012000F801A1908F015524539407C0FBE2AF164C
:1001300019F4F801A1908F015524209719F0C031CE
:10014000D105C1F4F0E3AF1679F4F8018081883766
:1001500011F0883549F4F801A1800E5F1F4FF2E0DD
:100160005F2AC0E1D0E006C0209721F480E3A81602
:10017000E9F427C0C830D10531F1C930D10524F4E4
:10018000C230D10531F50CC0CA30D10589F0C0317B
:10019000D105F9F4C12CD12CE12CB8E0FB2E28C0FC
:1001A000C12CD12CE12CA0E4FA2E22C0CAE0D0E070
:1001B000FCECCF2EFCECDF2EFCECEF2EFCE0FF2E57
:1001C00017C0C8E0D0E0C12CD12CE12CE0E1FE2E1C
:1001D0000FC09E01442737FD4095542F60E070E02A
:1001E00080E090E80E943510C901DA016C017D01C0
:1001F00020E030E040E050E060E03E01882477FC01
:100200008094982C70EDB72EBA0CE9E0EB1570F4E1
:100210008A2D81548A3118F499ECB92E06C08A2DA2
:1002200081568A3150F589EAB82EBA0C8B2D90E0B0
:100230008C179D0714F56F3FE1F0C216D306E40654
:10024000F506B0F0CA01B901A40193010E9416108D
:100250009B01AC012B0D311D411D511D2130F0E0E2
:100260003F07F0E04F07F0E85F0710F461E001C0DE
:100270006FEFF801A1908F01C5CF2114310481F0F7
:10028000662331F001501040F1011183008308C052
:1002900051FE1AC002501040F1011183008314C0B6
:1002A00067FF12C050FC05C02FEF3FEF4FEF5FE735
:1002B00004C020E030E040E050E882E290E090931B
:1002C00031058093300516C050FE08C0509540950A
:1002D000309521953F4F4F4F5F4F0CC057FF0AC0DD
:1002E00082E290E090933105809330052FEF3FEF4D
:1002F0004FEF5FE7B901CA01DF91CF911F910F91D5
:10030000FF90EF90DF90CF90BF90AF909F908F9035
:100310007F906F905F903F902F900895FC01882709
:100320009927E89421912032E9F3293010F02E30FA
:10033000C8F32B3241F02D3239F4689404C00E9486
:10034000C301820F911D219120532A30C0F31EF466
:10035000909581959F4F0895FB01DC0102C00190AB
:100360000D9241505040D8F70895FB01DC014150F7
:10037000504030F08D910190801919F40020B9F7A8
:10038000881B990B08957AE0979F902D879F802D69
:10039000910D11240895AEE0B0E0E1EDF1E00C9490
:1003A00076108C0177FF02C060E070E86150704009
:1003B0007E836D831A83098386E08C83CE01019648
:1003C000BA01A9010E94F5012D813E8137FD09C0C6
:1003D000EF81F8852E173F070CF4F901E00FF11FAC
:1003E00010822E96E4E00C949210ABE0B0E0EBEFBC
:1003F000F1E00C9468103C012B015A01FC011782BA
:100400001682838181FD03C06FEF7FEFC6C19AE042
:10041000892E1E010894211C311CF3012381F20155
:1004200023FD859123FF81912F01882309F4B2C117
:10043000853239F423FD859123FF81912F01853287
:1004400029F490E0B3010E94E803E7CF982FFF243E
:10045000EE249924FFE1FF15D0F09B3269F09C3225
:1004600028F4903259F0933291F40EC09D3249F045
:10047000903369F441E024C052E0F52A84E0F82A80
:1004800028C098E0F92A25C0E0E1FE2A22C0F7FC46
:1004900029C0892F80538A3070F4F6FE05C0989CDD
:1004A000902C1124980E15C0E89CE02C1124E80E25
:1004B000F0E2FF2A0EC09E3229F4F6FC6BC140E444
:1004C000F42A07C09C3619F450E8F52A02C0983681
:1004D00049F4F20123FD959123FF91912F01992376
:1004E00009F0B8CF892F8554833018F080528330BB
:1004F00038F444E050E0A40EB51E5FE359830FC00A
:10050000933631F0933779F0933509F056C020C017
:10051000F5018081898342E050E0A40EB51E61019F
:1005200001E010E012C0F501C080D180F6FC03C0EC
:100530006FEF7FEF02C0692D70E042E050E0A40E43
:10054000B51EC6010E94DD038C015FE7F52214C0D1
:10055000F501C080D180F6FC03C06FEF7FEF02C0D1
:10056000692D70E042E050E0A40EB51EC6010E9465
:10057000D2038C0150E8F52AF3FE07C01AC080E2CE
:1005800090E0B3010E94E803EA948E2D90E00817F2
:100590001907A8F30EC0F601F7FC8591F7FE8191CB
:1005A0006F0190E0B3010E94E803E110EA9401506A
:1005B00010400115110579F7EAC0943611F099360B
:1005C00069F5F7FE08C0F501208131814281538130
:1005D00084E090E00AC0F501808191819C0144276C
:1005E00037FD4095542F82E090E0A80EB91E9FE69B
:1005F000F92257FF09C050954095309521953F4FFE
:100600004F4F5F4FE0E8FE2ACA01B901A1012AE07D
:1006100030E00E941404D82ED21840C0953729F437
:100620001F2D1F7E2AE030E01DC01F2D197F9F3631
:1006300061F0903720F4983509F0ACC00FC09037C6
:1006400039F0983709F0A6C004C028E030E00AC0AD
:10065000106114FD146020E130E004C014FD166048
:1006600020E132E017FF08C0F501608171818281CD
:10067000938144E050E008C0F50180819181BC0184
:1006800080E090E042E050E0A40EB51EA1010E947F
:100690001404D82ED2188FE7F82EF122F6FE0BC0E4
:1006A0005EEFF522D91438F4F4FE07C0F2FC05C061
:1006B0008FEEF82202C01D2D01C0192DF4FE0DC0D1
:1006C000FE01ED0DF11D8081803319F499EEF922C0
:1006D00008C01F5FF2FE05C003C08F2D867809F0A9
:1006E0001F5F0F2DF3FC14C0F0FE0FC01E1510F09D
:1006F0009D2C0BC09D2C9E0C911A1E2D06C080E2D5
:1007000090E0B3010E94E8031F5F1E15C0F304C010
:100710001E1510F4E11A01C0EE2404FF0FC080E39F
:1007200090E0B3010E94E80302FF1DC001FD03C079
:1007300088E790E00EC088E590E00BC0802F8678B7
:1007400091F001FF02C08BE201C080E2F7FC8DE274
:1007500090E0B3010E94E80306C080E390E0B3019B
:100760000E94E8039A94D914C0F3DA94F101ED0DD4
:10077000F11D808190E0B3010E94E803DD20A9F71C
:1007800006C080E290E0B3010E94E803EA94EE2004
:10079000C1F743CEF30166817781CB012B96E2E16D
:1007A0000C948410FC010590615070400110D8F742
:1007B000809590958E0F9F1F0895FC0161507040A9
:1007C00001900110D8F7809590958E0F9F1F089586
:1007D0000F931F93CF93DF938C01EB018B8181FFEC
:1007E0001BC082FF0DC02E813F818C819D81281707
:1007F000390764F4E881F9810193F983E88306C03D
:10080000E885F985802F0995892B31F48E819F81A8
:1008100001969F838E8302C00FEF1FEFC801DF9107
:10082000CF911F910F910895FA01AA27283051F115
:10083000203181F1E8946F936E7F6E5F7F4F8F4F11
:100840009F4FAF4FB1E03ED0B4E03CD0670F781F70
:10085000891F9A1FA11D680F791F8A1F911DA11D55
:100860006A0F711D811D911DA11D20D009F468948E
:100870003F912AE0269F11243019305D3193DEF636
:10088000CF010895462F4770405D4193B3E00FD0EC
:10089000C9F7F6CF462F4F70405D4A3318F0495DD7
:1008A00031FD4052419302D0A9F7EACFB4E0A695BA
:1008B0009795879577956795BA95C9F700976105DC
:1008C000710508959B01AC010A2E06945795479532
:1008D00037952795BA95C9F7620F731F841F951F27
:1008E000A01D0895FC0140E021E030E0522F622F6E
:1008F0006150C90187709070892B09F440E04F5F07
:10090000593010F4838109C0513110F4828105C03F
:10091000593110F4818101C0808190E0042E02C021
:10092000959587950A94E2F780FD06C02F5F3F4FAB
:1009300021323105D9F601C0562F852F0895CF9267
:10094000DF92FF920F931F93CF93DF93F82EFB015B
:100950008FEF9FEFAFEFBFEF80839183A283B383CD
:1009600041E050E06EEF7FEF8F010F5F1F4FEF010F
:10097000229683E0C82ED12CCE0EDF1E3BC0842FE2
:1009800090E087709070892B09F450E05F5F4930E8
:1009900048F49B01052E02C0220F331F0A94E2F790
:1009A000D60117C0413158F49B01052E02C0220F19
:1009B000331F0A94E2F78881822388831AC0493161
:1009C00060F49B01052E02C0220F331F0A94E2F748
:1009D000D8018C9182238C930CC0413250F49B013E
:1009E000052E02C0220F331F0A94E2F78081822372
:1009F00080834F5FF41618F68F2DDF91CF911F91F2
:100A00000F91FF90DF90CF900895CF93DF93FC017B
:100A10008FECDF011D928A95E9F781E090E09183E8
:100A20008083809174039091750393838283809176
:100A3000AA038483EF012996A0E0B1E087E00D903E
:100A400009928150E1F780916E0390916F03A0911C
:100A50007003B0917103878F90A3A1A3B2A3EF019C
:100A60006996A8E6B3E086E00D9009928150E1F71F
:100A70008091760387A3809172039091730392A76C
:100A800081A720E061E9AF0142535F4F80812827B1
:100A900030E020FD2627822F90E095958795282F1E
:100AA0003F5F3830B1F73196E417F50779F7808367
:100AB00081E08093AC0380E090E0DF91CF910895D6
:100AC000CF92DF92EF92FF920F931F93DF93CF931A
:100AD000CDB7DEB7CF5CD0400FB6F894DEBF0FBE07
:100AE000CDBF7C01FC0120E061E9AC0142535F4FC6
:100AF0008081282730E020FD2627822F90E09595E1
:100B00008795282F3F5F3830B1F73196E417F50706
:100B100079F78083DE011196F7018FEC01900D9239
:100B20008150E1F700E010E06E010894C11CD11C77
:100B3000F601E00FF11F8CE794E0B80140810E94BC
:100B4000C30C0F5F1F4F003D110591F78EEC90E035
:100B5000E80EF91EF70180818093AB0380E090E0FE
:100B6000C153DF4F0FB6F894DEBF0FBECDBFCF919C
:100B7000DF911F910F91FF90EF90DF90CF9008953C
:100B8000CF92DF92EF92FF920F931F93DF93CF9359
:100B9000CDB7DEB7C05DD0400FB6F894DEBF0FBE54
:100BA000CDBF7C01FE01319680EDDF011D928A955B
:100BB000E9F700E010E06F018CE794E0B8010E94D3
:100BC000BC0CF601E00FF11F80830F5F1F4F003D4B
:100BD000110591F7F60190E061E9AE0141535F4FD5
:100BE0008081982780E090FD9627292F30E0359569
:100BF0002795922F8F5F8830B1F73196E417F5076C
:100C000079F78081281739F02093A8038093A903EE
:100C10002BE93FEF12C0D701FE0131968FEC019016
:100C20000D928150E1F7EEECF0E0EE0EFF1ED701E1
:100C30008C918093AB0320E030E0C901C053DF4FBB
:100C40000FB6F894DEBF0FBECDBFCF91DF911F91DD
:100C50000F91FF90EF90DF90CF9008950F931F9327
:100C6000DF93CF93CDB7DEB7C058D0400FB6F8941E
:100C7000DEBF0FBECDBFFE01E957FF4F419151913D
:100C80008E010F5F1F4F80E8D8011D928A95E9F70A
:100C9000C80160E870E09F010E94CB018EE095E002
:100CA000B8010E940410C058DF4F0FB6F894DEBFA1
:100CB0000FBECDBFCF91DF911F910F91089500D04E
:100CC00000D088E091E0EDB7FEB7928381838BE09E
:100CD00091E0948383830E942E060F900F900F90D3
:100CE0000F9008950F931F93DF93CF93CDB7DEB787
:100CF000C058D0400FB6F894DEBF0FBECDBFFE0186
:100D0000E957FF4F419151918E010F5F1F4F80E8CE
:100D1000D8011D928A95E9F7C80160E870E09F014B
:100D20000E94CB0100D000D088E091E0EDB7FEB783
:100D300092838183148303830E942E060F900F9069
:100D40000F900F900E945F06C058DF4F0FB6F894C7
:100D5000DEBF0FBECDBFCF91DF911F910F910895E0
:100D60000F931F938C010E945F0600D000D084E196
:100D700091E0EDB7FEB792838183148303830E94D1
:100D800072060F900F900F900F901F910F91089582
:100D90000E945F0600D080E291E0EDB7FEB792833B
:100DA00081830E9472060F900F9008950F931F93F6
:100DB000CF93DF930E945F0600D083E291E0EDB70E
:100DC000FEB7928381830E947206C7E7D3E00F903B
:100DD0000F900CE211E000D000D0EDB7FEB7128307
:100DE000018389919991948383830E9472060F9065
:100DF0000F900F900F90F3E0C739DF0761F7DF9195
:100E0000CF911F910F9108958EE095E00E94BC0E46
:100E1000892BD1F308958F929F92AF92BF92CF9278
:100E2000DF92EF92FF920F931F93DF93CF93CDB793
:100E3000DEB7C054D0400FB6F894DEBF0FBECDBFB2
:100E4000982E892EA62EB42E0E940407FE013196FC
:100E500080E4DF011D928A95E9F700E010E06F0160
:100E6000EB2CFF248EE095E00E94BC0E892BD1F381
:100E70008EE095E00E94ED0E682F883039F0F60183
:100E8000E00FF11F80830F5F1F4F06C0F601E00FD8
:100E9000F11F108201501040AA2039F06A30B1F0E1
:100EA0006D30A1F06A1529F411C06A3079F06D3007
:100EB00069F08EE095E00E94260FBB2019F00E1518
:100EC0001F0521F00F33110568F20CC00230110527
:100ED00048F4FE01319680E4DF011D928A95E9F71E
:100EE00000E010E0BE016F5F7F4FFB01E00FF11FDC
:100EF0001082892D982DA8010E94AC01C801C05C08
:100F0000DF4F0FB6F894DEBF0FBECDBFCF91DF919C
:100F10001F910F91FF90EF90DF90CF90BF90AF9017
:100F20009F908F900895EF92FF920F931F93DF93FE
:100F3000CF9300D000D000D0CDB7DEB7F82EE92E89
:100F40008E010F5F1F4F86E0D8011D928A95E9F749
:100F500000D000D0EDB7FEB7319680E391E0ADB799
:100F6000BEB712969C938E931197F282E3820E94F1
:100F70002E060F900F900F900F90C8016AE342E089
:100F80000E940B07892BC1F08A81883711F08835C0
:100F900039F4CE01019660E070E040E050E005C019
:100FA000C80160E070E040E150E00E945F009B01FA
:100FB000B1E061307B0718F08F2D9E2D9C01C90197
:100FC00026960FB6F894DEBF0FBECDBFCF91DF914E
:100FD0001F910F91FF90EF900895CF92DF92EF92C3
:100FE000FF920F931F93DF93CF9300D000D000D0D8
:100FF000CDB7DEB76C018E010F5F1F4F86E0D801C1
:101000001D928A95E9F70E945F06EDB7FEB73E97FD
:101010000FB6F894FEBF0FBEEDBF31968AE391E0A4
:10102000ADB7BEB712969C938E931197D6018C9153
:101030008283138211968C91119784831582129664
:101040008C9112978683178213968C9113978087C1
:10105000118614968C9114978287138615968C911D
:10106000848715860E942E06EE24FF24EDB7FEB776
:101070003E960FB6F894FEBF0FBEEDBFF601EE0D23
:10108000FF1D808190E00E949307F801EE0DFF1D87
:1010900080830894E11CF11CF6E0EF16F10471F76F
:1010A000D601F80186E001900D928150E1F780E0D1
:1010B00090E026960FB6F894DEBF0FBECDBFCF915D
:1010C000DF911F910F91FF90EF90DF90CF900895E7
:1010D000DF92EF92FF920F931F93DF93CF9300D095
:1010E00000D000D0CDB7DEB7082FD92E162F7E0145
:1010F0000894E11CF11C86E0D7011D928A95E9F75E
:1011000000D000D0EDB7FEB7319689E591E0ADB7DC
:10111000BEB712969C938E9311970283D3820E943E
:101120002E060F900F900F900F90C7016EE2412F87
:101130000E940B07892B21F0C7010E948E0102C07B
:10114000802F9D2D26960FB6F894DEBF0FBECDBF23
:10115000CF91DF911F910F91FF90EF90DF90089555
:10116000CF92DF92EF92FF920F931F93DF93CF9373
:1011700000D000D0CDB7DEB77C0119821A821B8265
:101180001C820E945F068DB79EB70A970FB6F8942F
:101190009EBF0FBE8DBFEDB7FEB7319681E691E0E1
:1011A000ADB7BEB712969C938E931197D7018C91D1
:1011B0008283138211968C911197848315821296E3
:1011C0008C9112978683178213968C918087118653
:1011D0000E942E0600E010E0EDB7FEB73A960FB67B
:1011E000F894FEBF0FBEEDBF6E010894C11CD11C68
:1011F000F701E00FF11F808190E063E00E94680832
:10120000F601E00FF11F80830F5F1F4F04301105BF
:1012100079F789819A81AB81BC81F70180839183C1
:10122000A283B38380E090E00F900F900F900F9017
:10123000CF91DF911F910F91FF90EF90DF90CF90B2
:1012400008950F931F93DF93CF93CDB7DEB76097C9
:101250000FB6F894DEBF0FBECDBF8C010E945F06B3
:1012600000D08EE691E0ADB7BEB712969C938E93F8
:1012700011970E94720600D08CE791E0EDB7FEB79F
:1012800092838183D8018D919C91948383830E9462
:1012900072068BE891E0EDB7FEB792838183D801A7
:1012A00012968D919C911397948383830E9472066A
:1012B000EDB7FEB731968AE991E0ADB7BEB71296A9
:1012C0009C938E931197D80114968C9182831382EC
:1012D0000E94720689EA91E0EDB7FEB7928381839E
:1012E000075F1F4F14830383095010400E9472064A
:1012F0000F900F9088EB91E0ADB7BEB712969C931C
:101300008E9311970E947206EDB7FEB73C970FB609
:10131000F894FEBF0FBEEDBF31968FEB91E0ADB7F5
:10132000BEB712969C938E931197D80159968C91C3
:101330005997828313825A968C915A978483158287
:101340005B968C915B97868317825C968C915C97F9
:10135000808711865D968C915D97828713865E9655
:101360008C91848715860E9472060F900F900F90C3
:101370000F90EDB7FEB7319689EE91E0ADB7BEB7ED
:1013800012969C938E931197D8015F968C915F97DC
:101390008283138290968C91909784831582919684
:1013A0008C9191978683178292968C918087118673
:1013B0000E947206EDB7FEB73A960FB6F894FEBFDC
:1013C0000FBEEDBFD80197968C91BE016F5F7F4F26
:1013D0000E949F04EDB7FEB73A970FB6F894FEBF90
:1013E0000FBEEDBF319681E092E0ADB7BEB7129669
:1013F0009C938E9311978981828313828A8184833F
:1014000015828B81868317828C81808711860E944A
:101410007206EDB7FEB7319689E192E0ADB7BEB77F
:1014200012969C938E931197D80193968C919397D3
:101430008283138294968C919497848315829596D7
:101440008C9195978683178296968C9180871186CA
:101450000E947206EDB7FEB736960FB6F894FEBF3F
:101460000FBEEDBF319681E392E0ADB7BEB71296E5
:101470009C938E931197D8019B968C9182831382B3
:101480000E94720680E492E0EDB7FEB792838183FA
:10149000D80199968D919C919A97948383830E9409
:1014A0007206EDB7FEB731968FE492E0ADB7BEB7E6
:1014B00012969C938E931197D80198968C91828363
:1014C00013820E9472060F900F908EE592E0EDB7A6
:1014D000FEB7928381830E94720600D0EDB7FEB7FB
:1014E00031968FE792E0ADB7BEB712969C938E937C
:1014F000119702531F4FD8018C91828313820E944F
:1015000072060F900F900F900F900E945F066096EA
:101510000FB6F894DEBF0FBECDBFCF91DF911F9104
:101520000F9108950F931F93DF93CF93CDB7DEB73D
:10153000C454D0400FB6F894DEBF0FBECDBF8E01AD
:101540000B5F1F4F80E4D8011D928A95E9F70E9436
:101550005F0600D08EE892E0EDB7FEB792838183FC
:101560000E94720600D088E992E0ADB7BEB712962D
:101570009C938E93119786EB93E014969C938E9395
:1015800013970E942E060F900F900F900F90C80196
:1015900060E040E00E940B07892BB1F0F801019058
:1015A0000020E9F73197E01BF10BE031F10510F075
:1015B000E0E1F0E026EB33E0AE014B5F5F4FC901A5
:1015C000BA01AF010E94AC010E945F06EDB7FEB701
:1015D0003E970FB6F894FEBF0FBEEDBF319686EA78
:1015E00092E0ADB7BEB712969C938E9311978091FF
:1015F000C603828313828091C703848315828091FE
:10160000C803868317828091C903808711868091E1
:10161000CA03828713868091CB03848715860E9434
:101620007206EDB7FEB73E960FB6F894FEBF0FBE3A
:10163000EDBF86EC93E00E94ED070E945F068DB738
:101640009EB70A970FB6F8949EBF0FBE8DBFEDB739
:10165000FEB7319681ED92E0ADB7BEB712969C937E
:101660008E9311978091CC03828313828091CD0356
:10167000848315828091CE03868317828091CF0365
:10168000808711860E947206EDB7FEB73A960FB6B4
:10169000F894FEBF0FBEEDBF8CEC93E00E94B00843
:1016A0008091D4038E010F5F1F4FB8010E949F04E9
:1016B0000E945F068DB79EB70A970FB6F8949EBF3B
:1016C0000FBE8DBFEDB7FEB7319689EE92E0ADB794
:1016D000BEB712969C938E93119789818283138251
:1016E0008A81848315828B81868317828C8180878F
:1016F00011860E947206EDB7FEB73A960FB6F894BF
:10170000FEBF0FBEEDBFC8010E94B008892B29F4AF
:10171000C8010E9472048093D403CC5BDF4F0FB6E4
:10172000F894DEBF0FBECDBFCF91DF911F910F9117
:101730000895DF92EF92FF920F931F93DF93CF9361
:10174000CDB7DEB7C054D0400FB6F894DEBF0FBEA1
:10175000CDBF8DEA93E00E94C005009751F10E9431
:10176000B0068DEA93E00E94210900D000D081E00C
:1017700093E0EDB7FEB7928381838FEC90E0948382
:1017800083830E9472060F900F900F900F908DEA46
:1017900093E060E00E940505009711F00E94B006FA
:1017A0008DEA93E00E946005009719F00E94B00650
:1017B00002C00E94C80620E4D22E8E010F5F1F4F88
:1017C0009AE1E92E93E0F92EF8018D2D11928A9578
:1017D000E9F70E945F0600D0EDB7FEB7F282E18222
:1017E0000E942E060F900F90C80160E040E00E941A
:1017F0000B07892B09F459C0C8010E94800C88236B
:1018000009F44FC0863031F1873078F4833029F104
:10181000843030F48130B9F0823009F042C016C013
:10182000843041F18530E9F515C0893061F18A30A5
:1018300028F4873079F08830A1F50CC08A3031F176
:101840008B3079F529C00E94920A04C08DEA93E09A
:101850000E9421090E94C80628C08DEA93E00E94D8
:10186000C0050097B9F30E94B0068DEA93E00E948C
:1018700021091BC08DEA93E00E9421098DEA93E0C3
:101880000E946005E7CF0E94D6060FC08DEA93E064
:1018900060E00E940505DECF0E94C8060E947D0C14
:1018A00004C08CEE9FEF0E94B00668EC70E080E010
:1018B00090E00E94170D88CF8EE095E040E855E259
:1018C00060E070E00E94350E06C064EF71E080E0D9
:1018D00090E00E94170D8EE095E00E94660F88232D
:1018E000A1F300D08DE193E0EDB7FEB79283818341
:1018F0000E9472060F900F9008950C9400000895B6
:10190000DF92EF92FF920F931F93CF93DF93D82E26
:10191000E92EE82FF92FEF0109900020E9F7CE1BFF
:10192000DF0B229707E713E0FF24F8016081718144
:10193000DB01FD0101900020E9F73197EA1BFB0B69
:10194000CE17DF0751F48D2D9E2DAE010E94B501FB
:10195000882319F48F2D8F5F07C0F3940E5F1F4FFC
:10196000F0E1FF1611F780E0DF91CF911F910F9109
:10197000FF90EF90DF900895F999FECF72BD61BDA1
:10198000F89A80B50895F999FECF1FBA72BD61BD6E
:1019900040BD0FB6F894FA9AF99A0FBE08951F92B7
:1019A0000F920FB60F9211242F933F938F939F9313
:1019B000AF93BF938091810490918204A09183049E
:1019C000B0918404309185040196A11DB11D232F8F
:1019D0002D5F2D3720F02D570196A11DB11D2093AD
:1019E00085048093810490938204A0938304B09330
:1019F000840480917D0490917E04A0917F04B09135
:101A000080040196A11DB11D80937D0490937E04F6
:101A1000A0937F04B0938004BF91AF919F918F9169
:101A20003F912F910F900FBE0F901F9018959B0123
:101A3000AC017FB7F89480917D0490917E04A091D1
:101A40007F04B091800466B5A89B05C06F3F19F074
:101A50000196A11DB11D7FBFBA2FA92F982F8827EE
:101A6000860F911DA11DB11D62E0880F991FAA1F4D
:101A7000BB1F6A95D1F7BC012DC0FFB7F8948091C8
:101A80007D0490917E04A0917F04B0918004E6B51E
:101A9000A89B05C0EF3F19F00196A11DB11DFFBF26
:101AA000BA2FA92F982F88278E0F911DA11DB11D28
:101AB000E2E0880F991FAA1FBB1FEA95D1F7861B8A
:101AC000970B885E9340C8F2215030404040504010
:101AD00068517C4F211531054105510571F6089576
:101AE000789484B5826084BD84B5816084BD85B5F9
:101AF000826085BD85B5816085BDEEE6F0E08081C0
:101B000081608083E1E8F0E01082808182608083E0
:101B1000808181608083E0E8F0E080818160808363
:101B2000E1EBF0E0808184608083E0EBF0E0808195
:101B300081608083EAE7F0E0808184608083808137
:101B400082608083808181608083808180688083DF
:101B50001092C100089508951F920F920FB60F9230
:101B600011242F933F934F938F939F93EF93FF9362
:101B70008091C00082FD1DC04091C6002091C60426
:101B80003091C7042F5F3F4F2F7330708091C8048E
:101B90009091C9042817390771F0E091C604F091BB
:101BA000C704EA57FB4F40833093C7042093C60411
:101BB00002C08091C600FF91EF919F918F914F914C
:101BC0003F912F910F900FBE0F901F901895E091AD
:101BD0001A05F0911B05E05CFF4F819191912081E6
:101BE0003181821B930B8F739070892B11F00E94AF
:101BF000AB0D08951F920F920FB60F9211242F93E1
:101C00003F938F939F93EF93FF9320910A05309119
:101C10000B0580910C0590910D052817390731F4BB
:101C20008091C1008F7D8093C10014C0E0910C05AC
:101C3000F0910D05E653FB4F208180910C059091AA
:101C40000D0501968F73907090930D0580930C0590
:101C50002093C600FF91EF919F918F913F912F911B
:101C60000F900FBE0F901F901895AF92BF92DF920A
:101C7000EF92FF920F931F93CF93DF93EC017A01C2
:101C80008B01DD24403081EE580780E0680780E05A
:101C9000780711F0DD24D39491E0A92EB12CEC89C2
:101CA000FD89DD2069F0C50108A002C0880F991FD9
:101CB0000A94E2F7808360E079E08DE390E005C06C
:101CC000108260E874E88EE190E0A80197010E941C
:101CD000351021503040404050405695479537953B
:101CE000279580E12030380720F0DD2011F0DD2439
:101CF000D6CFE889F9893083EA89FB89208319A244
:101D0000EE89FF89408121E030E0C9010C8C02C0DE
:101D1000880F991F0A94E2F7482B4083EE89FF89C8
:101D20004081C9010D8C02C0880F991F0A94E2F707
:101D3000482B4083EE89FF894081C9010E8C02C087
:101D4000880F991F0A94E2F7482B4083EE89FF8998
:101D500080810F8C02C0220F331F0A94E2F7209576
:101D600028232083DF91CF911F910F91FF90EF9057
:101D7000DF90BF90AF900895DC011C96ED91FC912F
:101D80001D97E05CFF4F2191319180819181281B4B
:101D9000390B2F733070C9010895DC011C96ED9149
:101DA000FC911D97E05CFF4F20813181E054F040B1
:101DB000DF01AE5BBF4F8D919C91119728173907BA
:101DC00019F42FEF3FEF07C08D919C91E80FF91F99
:101DD0008081282F30E0C9010895DC011C96ED9127
:101DE000FC911D97E05CFF4F20813181E054F04071
:101DF000DF01AE5BBF4F8D919C911197281739077A
:101E000019F42FEF3FEF10C08D919C911197E80FBF
:101E1000F91F20818D919C91119701968F7390707D
:101E200011969C938E9330E0C9010895DC01919640
:101E30008C919197882339F05496ED91FC915597A8
:101E4000808186FFF9CF91961C920895CF93DF93FE
:101E5000EC01EE85FF85E05CFF4F20813181E0548D
:101E6000F0402F5F3F4F2F733070DF01AE5BBF4FED
:101E70008D919C91119728173907D1F3E05CFF4FA2
:101E800080819181E054F040E80FF91F6083EE8576
:101E9000FF85E05CFF4F31832083EE89FF8920813D
:101EA00081E090E00F8C02C0880F991F0A94E2F73E
:101EB000282B208381E089A3EC89FD8980818064BF
:101EC000808381E090E0DF91CF91089581E00895D3
:101ED000109211051092100588EE93E0A0E0B0E09A
:101EE0008093120590931305A0931405B0931505E4
:101EF0008BE993E090930F0580930E0586E894E0BC
:101F000090931B0580931A058AEC94E090931D052D
:101F100080931C0585EC90E090931F0580931E052F
:101F200084EC90E0909321058093200580EC90E074
:101F3000909323058093220581EC90E090932505F2
:101F40008093240582EC90E09093270580932605EA
:101F500086EC90E0909329058093280584E0809397
:101F60002A0583E080932B0587E080932C0585E08C
:101F700080932D0581E080932E050895CF92DF9206
:101F8000EF92FF920F931F93CF93DF937C016B012E
:101F90008A01C0E0D0E00FC0D6016D916D01D7017C
:101FA000ED91FC910190F081E02DC7010995C80FDA
:101FB000D91F015010400115110571F7CE01DF91B5
:101FC000CF911F910F91FF90EF90DF90CF900895E8
:101FD000CF93DF93EC016115710519F420E030E037
:101FE0000FC0DB010D900020E9F71197A61BB70B7E
:101FF000E881F9810280F381E02DAD0109959C0112
:10200000C901DF91CF9108950E94E80F0895CF9301
:10201000DF930E94700D0E945C0CC7EEDDE00E9411
:10202000990B2097E1F30E94E70DF9CF629FD00151
:10203000739FF001829FE00DF11D649FE00DF11D83
:10204000929FF00D839FF00D749FF00D659FF00D32
:102050009927729FB00DE11DF91F639FB00DE11D1F
:10206000F91FBD01CF0111240895A1E21A2EAA1B68
:10207000BB1BFD010DC0AA1FBB1FEE1FFF1FA21738
:10208000B307E407F50720F0A21BB30BE40BF50B35
:10209000661F771F881F991F1A9469F760957095BE
:1020A000809590959B01AC01BD01CF010895EE0F85
:1020B000FF1F0590F491E02D0994911106C0803224
:1020C00019F089508550D0F70895992788270895E9
:1020D0002F923F924F925F926F927F928F929F9238
:1020E000AF92BF92CF92DF92EF92FF920F931F9326
:1020F000CF93DF93CDB7DEB7CA1BDB0B0FB6F894D7
:10210000DEBF0FBECDBF09942A88398848885F8416
:102110006E847D848C849B84AA84B984C884DF8087
:10212000EE80FD800C811B81AA81B981CE0FD11D6B
:102130000FB6F894DEBF0FBECDBFED010895F89441
:02214000FFCFCF
:102142004465764E616D65002573000A0D002530E9
:102152003258200045525220205B202564205D0029
:102162004F4B00436F6D6D616E64730020257300E9
:1021720028202530325820292000253032583A258F
:102182003032583A253032583A253032583A2530D2
:1021920032583A2530325820002820256420292040
:1021A2000025642E25642E25642E25642000436FAD
:1021B2006E66696775726174696F6E00205665722A
:1021C2002020202020203A2025640020494420207D
:1021D20020202020203A2025640020547970652098
:1021E200202020203A20256400204E616D652020A9
:1021F2002020203A202573004E6574436667002034
:102202004574682041646472203A20253032583A7D
:10221200253032583A253032583A253032583A254C
:102222003032583A253032580020495020416464F7
:102232007220203A2025642E25642E25642E2564E2
:1022420000204E65746D61736B20203A2025642E48
:1022520025642E25642E256400204761746577610C
:102262007920203A2025642E25642E25642E2564AB
:10227200002050726F746F202020203A20256400C5
:1022820020506F727420202020203A2025640020E4
:102292004D6F646520202020203A202564002D2DDA
:1022A2002D2D2D2D2D2D2D2D2D2D2D2D2D2D2D2D5C
:1022B2002D2D2D2D2D2D2D2D2D2D2D2D2D2D002086
:1022C2004352432020202020203A20256400436FDF
:1022D2006E666967757265004E616D6520282025FE
:1022E200732029203A0045746820416464722028D2
:1022F20020253032583A253032583A253032583A71
:10230200253032583A253032583A25303258202971
:10231200004950204164647220282025642E2564DF
:102322002E25642E25642029004E65746D61736B21
:1023320020282025642E25642E25642E256420293C
:10234200006372656174696E6720636F6E666967A8
:10235200202564206279746573003E2000726573E3
:1023620065742E2E2E00636F6E6669670073686F48
:1023720077006C6F6164007361766500636F6E6EE7
:102382006563740073656E64006C697374656E00D6
:10239200636C6F73650068656C70007265696E6965
:1023A20074007265736574000080A3131326C0A8BD
:1023B2000071210501001826032D03320337033C67
:1023C2000344034903500356035B03620300000006
:1023D2000000000000000000000000260FBE0FBC3D
:0823E2000EED0ECD0E160F00EA
:00000001FF
