:100000000C9435000C945D000C945D000C945D0024
:100010000C945D000C945D000C945D000C945D00EC
:100020000C945D000C945D000C945D000C945D00DC
:100030000C945D000C945D000C945D000C945D00CC
:100040000C9437070C945D000C9414080C9462080F
:100050000C945D000C945D000C945D000C945D00AC
:100060000C945D000C945D00D00911241FBECFEFED
:10007000D8E0DEBFCDBF13E0A0E0B1E0EEEBF5E1EC
:1000800002C005900D92A432B107D9F714E0A4E2A2
:10009000B3E001C01D92A83AB107E1F710E0CAE64B
:1000A000D0E004C02297FE010E94A20AC836D10700
:1000B000C9F70E946F0A0C94DD0A0C940000FB0142
:1000C000DC0102C001900D9241505040D8F70895D4
:1000D000AEE0B0E0EEE6F0E00C94B40A8C0177FFFD
:1000E00002C060E070E8615070407E836D831A83C7
:1000F000098386E08C83CE010196BA01A9010E9492
:1001000092002D813E8137FD09C0EF81F8852E17C1
:100110003F070CF4F901E00FF11F10822E96E4E086
:100120000C94D00AABE0B0E0E8E9F0E00C94A60A49
:100130003C012B015A01FC0117821682838181FD4B
:1001400003C06FEF7FEFC6C19AE0892E1E010894AD
:10015000211C311CF3012381F20123FD859123FF32
:1001600081912F01882309F4B2C1853239F423FD2E
:10017000859123FF81912F01853229F490E0B3010D
:100180000E948502E7CF982FFF24EE249924FFE1F7
:10019000FF15D0F09B3269F09C3228F4903259F070
:1001A000933291F40EC09D3249F0903369F441E0EE
:1001B00024C052E0F52A84E0F82A28C098E0F92A01
:1001C00025C0E0E1FE2A22C0F7FC29C0892F805318
:1001D0008A3070F4F6FE05C0989C902C1124980E7D
:1001E00015C0E89CE02C1124E80EF0E2FF2A0EC0B6
:1001F0009E3229F4F6FC6BC140E4F42A07C09C3619
:1002000019F450E8F52A02C0983649F4F20123FDAA
:10021000959123FF91912F01992309F0B8CF892F50
:100220008554833018F08052833038F444E050E035
:10023000A40EB51E5FE359830FC0933631F0933798
:1002400079F0933509F056C020C0F501808189838B
:1002500042E050E0A40EB51E610101E010E012C0C2
:10026000F501C080D180F6FC03C06FEF7FEF02C0C4
:10027000692D70E042E050E0A40EB51EC6010E9458
:100280007A028C015FE7F52214C0F501C080D180AD
:10029000F6FC03C06FEF7FEF02C0692D70E042E013
:1002A00050E0A40EB51EC6010E946F028C0150E8FA
:1002B000F52AF3FE07C01AC080E290E0B3010E9465
:1002C0008502EA948E2D90E008171907A8F30EC056
:1002D000F601F7FC8591F7FE81916F0190E0B30183
:1002E0000E948502E110EA940150104001151105A9
:1002F00079F7EAC0943611F0993669F5F7FE08C02F
:10030000F501208131814281538184E090E00AC06F
:10031000F501808191819C01442737FD4095542F40
:1003200082E090E0A80EB91E9FE6F92257FF09C0AF
:1003300050954095309521953F4F4F4F5F4FE0E8E6
:10034000FE2ACA01B901A1012AE030E00E94B102EF
:10035000D82ED21840C0953729F41F2D1F7E2AE0D1
:1003600030E01DC01F2D197F9F3661F0903720F4BB
:10037000983509F0ACC00FC0903739F0983709F0C4
:10038000A6C004C028E030E00AC0106114FD14606B
:1003900020E130E004C014FD166020E132E017FFD8
:1003A00008C0F501608171818281938144E050E051
:1003B00008C0F50180819181BC0180E090E042E0BD
:1003C00050E0A40EB51EA1010E94B102D82ED21891
:1003D0008FE7F82EF122F6FE0BC05EEFF522D9145E
:1003E00038F4F4FE07C0F2FC05C08FEEF82202C01C
:1003F0001D2D01C0192DF4FE0DC0FE01ED0DF11DE6
:100400008081803319F499EEF92208C01F5FF2FE53
:1004100005C003C08F2D867809F01F5F0F2DF3FCF8
:1004200014C0F0FE0FC01E1510F09D2C0BC09D2CAB
:100430009E0C911A1E2D06C080E290E0B3010E942E
:1004400085021F5F1E15C0F304C01E1510F4E11ACB
:1004500001C0EE2404FF0FC080E390E0B3010E94CE
:10046000850202FF1DC001FD03C088E790E00EC0B9
:1004700088E590E00BC0802F867891F001FF02C0E4
:100480008BE201C080E2F7FC8DE290E0B3010E94B4
:10049000850206C080E390E0B3010E9485029A9431
:1004A000D914C0F3DA94F101ED0DF11D808190E0D3
:1004B000B3010E948502DD20A9F706C080E290E02A
:1004C000B3010E948502EA94EE20C1F743CEF30106
:1004D00066817781CB012B96E2E10C94C20AFC0184
:1004E0000590615070400110D8F7809590958E0F5F
:1004F0009F1F0895FC016150704001900110D8F7D2
:10050000809590958E0F9F1F08950F931F93CF9303
:10051000DF938C01EB018B8181FF1BC082FF0DC03B
:100520002E813F818C819D812817390764F4E881F1
:10053000F9810193F983E88306C0E885F985802F66
:100540000995892B31F48E819F8101969F838E833B
:1005500002C00FEF1FEFC801DF91CF911F910F91E4
:100560000895FA01AA27283051F1203181F1E89449
:100570006F936E7F6E5F7F4F8F4F9F4FAF4FB1E096
:100580003ED0B4E03CD0670F781F891F9A1FA11D91
:10059000680F791F8A1F911DA11D6A0F711D811D92
:1005A000911DA11D20D009F468943F912AE0269F57
:1005B00011243019305D3193DEF6CF010895462FB6
:1005C0004770405D4193B3E00FD0C9F7F6CF462F97
:1005D0004F70405D4A3318F0495D31FD4052419300
:1005E00002D0A9F7EACFB4E0A695979587957795BD
:1005F0006795BA95C9F700976105710508959B0144
:10060000AC010A2E06945795479537952795BA95CC
:10061000C9F7620F731F841F951FA01D0895282F0F
:10062000792F462F613110F08FE80895EDE2F3E065
:1006300080E1DF011D928A95E9F7CF01622F50E03A
:100640000E945F0080E00895CF93DF93EC018BEC74
:10065000FE0111928A95E9F7662309F048C081E00E
:1006600090E09983888380911003909111039B837C
:100670008A838091F1038C8380E091E067E00E949F
:100680000F0380910A0390910B03A0910C03B0918A
:100690000D038F8F98A3A9A3BAA3DE015996E4E0B6
:1006A000F3E086E001900D928150E1F78091120312
:1006B0008BA380910E0390910F039EA38DA3FE0147
:1006C00020E061E9AE0146535F4F8081282730E08A
:1006D00020FD2627822F90E095958795282F3F5F54
:1006E0003830B1F73196E417F50779F7808381E068
:1006F0008093F30380E090E0DF91CF910895CF9253
:10070000DF92EF92FF920F931F93DF93CF93CDB7BA
:10071000DEB7CB5CD0400FB6F894DEBF0FBECDBFC6
:100720007C01DE011196FC018BEC01900D92815051
:10073000E1F7F70120E061E9A70146535F4F8081AF
:10074000282730E020FD2627822F90E09595879579
:10075000282F3F5F3830B1F73196E417F50779F766
:10076000808300E010E06E010894C11CD11CF601EA
:10077000E00FF11F84EF93E0B80140810E942B0746
:100780000F5F1F4F0C3C110591F78AEC90E0E80ECB
:10079000F91EF70180818093F20380E090E0C55359
:1007A000DF4F0FB6F894DEBF0FBECDBFCF91DF9104
:1007B0001F910F91FF90EF90DF90CF900895CF920F
:1007C000DF92EF92FF920F931F93DF93CF93CDB7FA
:1007D000DEB7CC5CD0400FB6F894DEBF0FBECDBF05
:1007E0007C01FE0131968CECDF011D928A95E9F7C0
:1007F00000E010E06F0184EF93E0B8010E9424074D
:10080000F601E00FF11F80830F5F1F4F0C3C1105B5
:1008100091F7F60190E061E9AE0145535F4F8081A9
:10082000982780E090FD9627292F30E03595279571
:10083000922F8F5F8830B1F73196E417F50779F77B
:100840008081281739F02093EF038093F0032BE980
:100850003FEF12C0D701FE0131968BEC01900D9253
:100860008150E1F7EAECF0E0EE0EFF1ED7018C912B
:100870008093F20320E030E0C901C453DF4F0FB68C
:10088000F894DEBF0FBECDBFCF91DF911F910F91C6
:10089000FF90EF90DF90CF9008950F931F93DF9319
:1008A000CF93CDB7DEB7C058D0400FB6F894DEBFB7
:1008B0000FBECDBFFE01E957FF4F419151918E010F
:1008C0000F5F1F4F80E8D8011D928A95E9F7C80194
:1008D00060E870E09F010E94680086E894E0B8013B
:1008E0000E946C0AC058DF4F0FB6F894DEBF0FBEEF
:1008F000CDBFCF91DF911F910F9108950F931F935B
:100900008C0100D088E091E0ADB7BEB712969C9301
:100910008E9311970E944D0400D08AE191E0EDB7CB
:10092000FEB792838183D8018D919C9194838383B8
:100930000E944D048BE291E0EDB7FEB79283818374
:10094000D80112968D919C911397948383830E9472
:100950004D04EDB7FEB731968CE391E0ADB7BEB76D
:1009600012969C938E931197D80114968C91828342
:1009700013820E944D048DE491E0EDB7FEB792839F
:100980008183075F1F4F14830383095010400E9427
:100990004D040F900F908EE591E0ADB7BEB7129663
:1009A0009C938E9311970E944D04EDB7FEB73C9730
:1009B0000FB6F894FEBF0FBEEDBF319687E691E00B
:1009C000ADB7BEB712969C938E931197D8015996E6
:1009D0008C915997828313825A968C915A9784836B
:1009E00015825B968C915B97868317825C968C91BF
:1009F0005C97808711865D968C915D9782871386C0
:100A00005E968C91848715860E944D040F900F90FE
:100A10000F900F90EDB7FEB7319683E991E0ADB737
:100A2000BEB712969C938E931197D8015F968C91C6
:100A30005F978283138290968C919097848315821E
:100A400091968C9191978683178292968C9180874C
:100A500011860E944D04EDB7FEB736960FB6F89496
:100A6000FEBF0FBEEDBF31968DEA91E0ADB7BEB7C8
:100A700012969C938E931197D80197968C918283AE
:100A800013820E944D048EEB91E0EDB7FEB7928386
:100A90008183D80195968D919C91969794838383B9
:100AA0000E944D04EDB7FEB731968FEC91E0ADB7E3
:100AB000BEB712969C938E931197D80194968C9101
:100AC000828313820E944D040F900F9080EE91E07C
:100AD000EDB7FEB7928381830E944D0400D0EDB73D
:100AE000FEB7319683E092E0ADB7BEB712969C9305
:100AF0008E93119706531F4FD8018C9182831382D6
:100B00000E944D0484E192E0EDB7FEB792838183A9
:100B10008BEC90E0948383830E944D040F900F90A0
:100B200085E292E0ADB7BEB712969C938E93119773
:100B30000E944D040F900F901F910F91089586E829
:100B400094E00E942409892BD1F30895CF92DF927B
:100B5000EF92FF920F931F93DF93CF93CDB7DEB742
:100B6000C054D0400FB6F894DEBF0FBECDBFD82E14
:100B7000C92E0E949F05FE01319680E4DF011D927F
:100B80008A95E9F700E010E07F0186E894E00E9492
:100B90002409892BD1F386E894E00E945509682F37
:100BA000883049F0F701E00FF11F80830F5F1F4F7E
:100BB0008A3041F410C0F701E00FF11F108201509C
:100BC000104002C08D3039F086E894E00E948E0912
:100BD0000F331105D0F20230110548F4FE013196B1
:100BE00080E4DF011D928A95E9F700E010E0BE0184
:100BF0006F5F7F4FFB01E00FF11F10828D2D9C2D49
:100C0000A8010E945F00C801C05CDF4F0FB6F894D6
:100C1000DEBF0FBECDBFCF91DF911F910F91FF902F
:100C2000EF90DF90CF900895CF92DF92EF92FF92F6
:100C30000F931F93DF93CF93CDB7DEB7C054D0404F
:100C40000FB6F894DEBF0FBECDBF84E293E00E94E2
:100C5000DF039C01009709F48CC08DB79EB70897FD
:100C60000FB6F8949EBF0FBE8DBFEDB7FEB731969D
:100C700088E292E0ADB7BEB712969C938E9311971F
:100C8000338322838091EF03848315828091F00364
:100C9000868317820E944D04EDB7FEB738960FB6D3
:100CA000F894FEBF0FBEEDBF84E293E00E947E0485
:100CB00000D000D08DE492E0ADB7BEB712969C9301
:100CC0008E9311978BEC90E014969C938E931397D0
:100CD0000E944D040F900F900F900F9084E293E0CC
:100CE00060E00E9424039C01009789F000D000D0AE
:100CF00088E692E0EDB7FEB7928381833483238345
:100D00000E944D040F900F900F900F9004C084E24A
:100D100093E00E947E0484E293E00E947F039C01A2
:100D20000097A1F000D000D083E892E0ADB7BEB745
:100D300012969C938E93119714963C932E9313972F
:100D40000E944D040F900F900F900F9000D000D094
:100D500089E992E0EDB7FEB7928381838BEC90E056
:100D6000948383830E944D040F900F900F900F90F7
:100D70001AC000D000D08BEB92E0ADB7BEB7129690
:100D80009C938E9311978BEC90E014969C938E938A
:100D900013970E944D040F900F900F900F9084E2D4
:100DA00093E00E947E0497EEC92E92E0D92E8E0128
:100DB0000F5F1F4F8AEEE82E82E0F82E00D0EDB7CD
:100DC000FEB7D282C1820E944D040F900F90C801DD
:100DD0000E94A60500D000D0ADB7BEB71296FC9217
:100DE000EE92119714961C930E9313970E944D0444
:100DF0000F900F900F900F9068EE73E080E090E0FE
:100E00000E947F07DBCF86E894E040E052EC61E08F
:100E100070E00E949D0806C064EF71E080E090E001
:100E20000E947F0786E894E00E94CE098823A1F300
:100E300000D089EF92E0EDB7FEB7928381830E94E4
:100E40004D040F900F900895F999FECF72BD61BDCA
:100E5000F89A80B50895F999FECF1FBA72BD61BDA9
:100E600040BD0FB6F894FA9AF99A0FBE08951F92F2
:100E70000F920FB60F9211242F933F938F939F934E
:100E8000AF93BF938091F9039091FA03A091FB0374
:100E9000B091FC033091FD030196A11DB11D232FDC
:100EA0002D5F2D3720F02D570196A11DB11D2093E8
:100EB000FD038093F9039093FA03A093FB03B0938F
:100EC000FC038091F5039091F603A091F703B09194
:100ED000F8030196A11DB11D8093F5039093F603CD
:100EE000A093F703B093F803BF91AF919F918F91B7
:100EF0003F912F910F900FBE0F901F9018959B015F
:100F0000AC017FB7F8948091F5039091F603A0911E
:100F1000F703B091F80366B5A89B05C06F3F19F0C1
:100F20000196A11DB11D7FBFBA2FA92F982F882729
:100F3000860F911DA11DB11D62E0880F991FAA1F88
:100F4000BB1F6A95D1F7BC012DC0FFB7F894809103
:100F5000F5039091F603A091F703B091F803E6B57D
:100F6000A89B05C0EF3F19F00196A11DB11DFFBF61
:100F7000BA2FA92F982F88278E0F911DA11DB11D63
:100F8000E2E0880F991FAA1FBB1FEA95D1F7861BC5
:100F9000970B885E9340C8F221503040404050404B
:100FA00068517C4F211531054105510571F60895B1
:100FB000789484B5826084BD84B5816084BD85B534
:100FC000826085BD85B5816085BDEEE6F0E08081FB
:100FD00081608083E1E8F0E010828081826080831C
:100FE000808181608083E0E8F0E08081816080839F
:100FF000E1EBF0E0808184608083E0EBF0E08081D1
:1010000081608083EAE7F0E0808184608083808172
:10101000826080838081816080838081806880831A
:101020001092C100089508951F920F920FB60F926B
:1010300011242F933F934F938F939F93EF93FF939D
:101040008091C00082FD1DC04091C60020913E04E9
:1010500030913F042F5F3F4F2F73307080914004D9
:10106000909141042817390771F0E0913E04F09106
:101070003F04E250FC4F408330933F0420933E04F2
:1010800002C08091C600FF91EF919F918F914F9187
:101090003F912F910F900FBE0F901F901895E091E8
:1010A0009204F0919304E05CFF4F81919191208133
:1010B0003181821B930B8F739070892B11F00E94EA
:1010C000130808951F920F920FB60F9211242F93B9
:1010D0003F938F939F93EF93FF93209182043091DE
:1010E000830480918404909185042817390731F492
:1010F0008091C1008F7D8093C10014C0E091840471
:10110000F0918504EE5BFB4F2081809184049091E7
:10111000850401968F739070909385048093840466
:101120002093C600FF91EF919F918F913F912F9156
:101130000F900FBE0F901F901895AF92BF92DF9245
:10114000EF92FF920F931F93CF93DF93EC017A01FD
:101150008B01DD24403081EE580780E0680780E095
:10116000780711F0DD24D39491E0A92EB12CEC89FD
:10117000FD89DD2069F0C50108A002C0880F991F14
:101180000A94E2F7808360E079E08DE390E005C0A7
:10119000108260E874E88EE190E0A80197010E9457
:1011A0007E0A215030404040504056954795379533
:1011B000279580E12030380720F0DD2011F0DD2474
:1011C000D6CFE889F9893083EA89FB89208319A27F
:1011D000EE89FF89408121E030E0C9010C8C02C01A
:1011E000880F991F0A94E2F7482B4083EE89FF8904
:1011F0004081C9010D8C02C0880F991F0A94E2F743
:10120000482B4083EE89FF894081C9010E8C02C0C2
:10121000880F991F0A94E2F7482B4083EE89FF89D3
:1012200080810F8C02C0220F331F0A94E2F72095B1
:1012300028232083DF91CF911F910F91FF90EF9092
:10124000DF90BF90AF900895DC011C96ED91FC916A
:101250001D97E05CFF4F2191319180819181281B86
:10126000390B2F733070C9010895DC011C96ED9184
:10127000FC911D97E05CFF4F20813181E054F040EC
:10128000DF01AE5BBF4F8D919C91119728173907F5
:1012900019F42FEF3FEF07C08D919C91E80FF91FD4
:1012A0008081282F30E0C9010895DC011C96ED9162
:1012B000FC911D97E05CFF4F20813181E054F040AC
:1012C000DF01AE5BBF4F8D919C91119728173907B5
:1012D00019F42FEF3FEF10C08D919C911197E80FFB
:1012E000F91F20818D919C91119701968F739070B9
:1012F00011969C938E9330E0C9010895DC0191967C
:101300008C919197882339F05496ED91FC915597E3
:10131000808186FFF9CF91961C920895CF93DF9339
:10132000EC01EE85FF85E05CFF4F20813181E054C8
:10133000F0402F5F3F4F2F733070DF01AE5BBF4F28
:101340008D919C91119728173907D1F3E05CFF4FDD
:1013500080819181E054F040E80FF91F6083EE85B1
:10136000FF85E05CFF4F31832083EE89FF89208178
:1013700081E090E00F8C02C0880F991F0A94E2F779
:10138000282B208381E089A3EC89FD8980818064FA
:10139000808381E090E0DF91CF91089581E008950E
:1013A000109289041092880488EE93E0A0E0B0E0E7
:1013B00080938A0490938B04A0938C04B0938D0443
:1013C00087E193E090938704809386048EEF93E007
:1013D000909393048093920482E494E09093950414
:1013E0008093940485EC90E0909397048093960406
:1013F00084EC90E0909399048093980480EC90E0C2
:1014000090939B0480939A0481EC90E090939D04C8
:1014100080939C0482EC90E090939F0480939E04C0
:1014200086EC90E09093A1048093A00484E08093E4
:10143000A20483E08093A30487E08093A40485E062
:101440008093A50481E08093A6040895CF92DF9253
:10145000EF92FF920F931F93CF93DF937C016B0169
:101460008A01C0E0D0E00FC0D6016D916D01D701B7
:10147000ED91FC910190F081E02DC7010995C80F15
:10148000D91F015010400115110571F7CE01DF91F0
:10149000CF911F910F91FF90EF90DF90CF90089523
:1014A000CF93DF93EC016115710519F420E030E072
:1014B0000FC0DB010D900020E9F71197A61BB70BB9
:1014C000E881F9810280F381E02DAD0109959C014D
:1014D000C901DF91CF9108950E94500A0895CF93DA
:1014E000DF930E94D8070E940307CFE4D8E00E9450
:1014F00014062097E1F30E944F08F9CFA1E21A2EBB
:10150000AA1BBB1BFD010DC0AA1FBB1FEE1FFF1FA7
:10151000A217B307E407F50720F0A21BB30BE40BF7
:10152000F50B661F771F881F991F1A9469F760953E
:101530007095809590959B01AC01BD01CF010895F8
:10154000EE0FFF1F0590F491E02D09942F923F922A
:101550004F925F926F927F928F929F92AF92BF92C3
:10156000CF92DF92EF92FF920F931F93CF93DF936F
:10157000CDB7DEB7CA1BDB0B0FB6F894DEBF0FBECC
:10158000CDBF09942A88398848885F846E847D8419
:101590008C849B84AA84B984C884DF80EE80FD801B
:1015A0000C811B81AA81B981CE0FD11D0FB6F89491
:0E15B000DEBF0FBECDBFED010895F894FFCF52
:1015BE0064756D62446576000A0D436F6E666967E9
:1015CE0075726174696F6E0A0D0020566572202067
:1015DE00202020203A2025640A0D00204944202096
:1015EE0020202020203A2025640A0D0020547970F6
:1015FE006520202020203A2025640A0D00204E610F
:10160E006D6520202020203A2025730A0D004E659E
:10161E00744366670A0D0020457468204164647245
:10162E00203A20253032583A253032583A25303279
:10163E00583A253032583A253032583A25303258F9
:10164E000A0D00204950204164647220203A202562
:10165E00642E25642E25642E25640A0D00205072FA
:10166E006F746F202020203A2025640A0D00205030
:10167E006F727420202020203A2025640A0D00204D
:10168E004D6F646520202020203A2025640A0D002D
:10169E002D2D2D2D2D2D2D2D2D2D2D2D2D2D2D2D6C
:1016AE002D2D2D2D2D2D2D2D2D2D2D2D2D2D2D2D5C
:1016BE000A0D00204352432020202020203A2025CE
:1016CE00640A0D002053697A6520202020203A20DC
:1016DE0025640A0D000A0D006C6F616420636F6E45
:1016EE00666967206572726F722025642028202536
:1016FE00642029202820256420290A0D00637265A4
:10170E006174696E6720636F6E6669672025642059
:10171E0062797465730A0D006572726F722063725E
:10172E00656174696E6720636F6E666967202564F4
:10173E000A0D006572726F7220736176696E672092
:10174E00636F6E6669670A0D00636F6E6669672068
:10175E00736176656420746F20454550524F4D205D
:10176E0025642062797465730A0D00636F6E666975
:10177E0067206C6F61642066726F6D204545505214
:10178E004F4D202D206F6B20282025642062797408
:10179E00657320290A0D003E20000A0D496E7075F2
:1017AE0074203D2025730A0D0072657365742E2E0C
:1017BE002E0A0D000080A3131326C0A80071210568
:1017CE00010018000000008E09260A24095509356B
:0417DE00097E090077
:00000001FF
